{
  "_format": "hh-sol-artifact-1",
  "contractName": "VehicleRental",
  "sourceName": "contracts/VehicleRental.sol",
  "abi": [
    {
      "anonymous": false,
      "inputs": [
        {
          "indexed": true,
          "internalType": "uint256",
          "name": "carId",
          "type": "uint256"
        },
        {
          "indexed": false,
          "internalType": "string",
          "name": "model",
          "type": "string"
        }
      ],
      "name": "CarAdded",
      "type": "event"
    },
    {
      "anonymous": false,
      "inputs": [
        {
          "indexed": true,
          "internalType": "uint256",
          "name": "carId",
          "type": "uint256"
        },
        {
          "indexed": true,
          "internalType": "address",
          "name": "renter",
          "type": "address"
        },
        {
          "indexed": false,
          "internalType": "uint256",
          "name": "duration",
          "type": "uint256"
        }
      ],
      "name": "CarRented",
      "type": "event"
    },
    {
      "anonymous": false,
      "inputs": [
        {
          "indexed": true,
          "internalType": "uint256",
          "name": "carId",
          "type": "uint256"
        },
        {
          "indexed": true,
          "internalType": "address",
          "name": "renter",
          "type": "address"
        }
      ],
      "name": "CarReturned",
      "type": "event"
    },
    {
      "inputs": [
        {
          "internalType": "string",
          "name": "_model",
          "type": "string"
        },
        {
          "internalType": "string",
          "name": "_licensePlate",
          "type": "string"
        },
        {
          "internalType": "uint256",
          "name": "_pricePerDay",
          "type": "uint256"
        },
        {
          "internalType": "uint256",
          "name": "_duration",
          "type": "uint256"
        }
      ],
      "name": "addCar",
      "outputs": [],
      "stateMutability": "nonpayable",
      "type": "function"
    },
    {
      "inputs": [
        {
          "internalType": "uint256",
          "name": "",
          "type": "uint256"
        }
      ],
      "name": "cars",
      "outputs": [
        {
          "internalType": "uint256",
          "name": "id",
          "type": "uint256"
        },
        {
          "internalType": "string",
          "name": "model",
          "type": "string"
        },
        {
          "internalType": "string",
          "name": "licensePlate",
          "type": "string"
        },
        {
          "internalType": "uint256",
          "name": "pricePerDay",
          "type": "uint256"
        },
        {
          "internalType": "uint256",
          "name": "duration",
          "type": "uint256"
        },
        {
          "internalType": "bool",
          "name": "isAvailable",
          "type": "bool"
        },
        {
          "internalType": "address",
          "name": "renter",
          "type": "address"
        }
      ],
      "stateMutability": "view",
      "type": "function"
    },
    {
      "inputs": [],
      "name": "getAllCars",
      "outputs": [
        {
          "internalType": "uint256[]",
          "name": "ids",
          "type": "uint256[]"
        },
        {
          "internalType": "string[]",
          "name": "models",
          "type": "string[]"
        },
        {
          "internalType": "string[]",
          "name": "plates",
          "type": "string[]"
        },
        {
          "internalType": "uint256[]",
          "name": "prices",
          "type": "uint256[]"
        },
        {
          "internalType": "uint256[]",
          "name": "durations",
          "type": "uint256[]"
        },
        {
          "internalType": "bool[]",
          "name": "availables",
          "type": "bool[]"
        },
        {
          "internalType": "address[]",
          "name": "renters",
          "type": "address[]"
        }
      ],
      "stateMutability": "view",
      "type": "function"
    },
    {
      "inputs": [
        {
          "internalType": "address",
          "name": "_renter",
          "type": "address"
        }
      ],
      "name": "getRentalHistory",
      "outputs": [
        {
          "internalType": "uint256[]",
          "name": "carIds",
          "type": "uint256[]"
        },
        {
          "internalType": "uint256[]",
          "name": "durations",
          "type": "uint256[]"
        },
        {
          "internalType": "string[]",
          "name": "models",
          "type": "string[]"
        },
        {
          "internalType": "string[]",
          "name": "plates",
          "type": "string[]"
        },
        {
          "internalType": "uint256[]",
          "name": "prices",
          "type": "uint256[]"
        }
      ],
      "stateMutability": "view",
      "type": "function"
    },
    {
      "inputs": [
        {
          "internalType": "uint256",
          "name": "_id",
          "type": "uint256"
        },
        {
          "internalType": "uint256",
          "name": "_duration",
          "type": "uint256"
        }
      ],
      "name": "rentCar",
      "outputs": [],
      "stateMutability": "payable",
      "type": "function"
    },
    {
      "inputs": [
        {
          "internalType": "address",
          "name": "",
          "type": "address"
        },
        {
          "internalType": "uint256",
          "name": "",
          "type": "uint256"
        }
      ],
      "name": "rentalRecords",
      "outputs": [
        {
          "internalType": "uint256",
          "name": "carId",
          "type": "uint256"
        },
        {
          "internalType": "uint256",
          "name": "duration",
          "type": "uint256"
        },
        {
          "internalType": "uint256",
          "name": "timestamp",
          "type": "uint256"
        }
      ],
      "stateMutability": "view",
      "type": "function"
    }
  ],
  "bytecode": "0x6080604052348015600f57600080fd5b5061202f8061001f6000396000f3fe6080604052600436106100555760003560e01c80633f1ff2df1461005a5780634865bed21461009957806396744a6a146100c25780639ca0fc0d14610103578063abfe5d571461011f578063f7746e3614610150575b600080fd5b34801561006657600080fd5b50610081600480360381019061007c9190611273565b610193565b604051610090939291906112c2565b60405180910390f35b3480156100a557600080fd5b506100c060048036038101906100bb919061143f565b6101da565b005b3480156100ce57600080fd5b506100e960048036038101906100e491906114de565b61034d565b6040516100fa95949392919061170a565b60405180910390f35b61011d60048036038101906101189190611780565b610867565b005b34801561012b57600080fd5b50610134610adc565b6040516101479796959493929190611948565b60405180910390f35b34801561015c57600080fd5b50610177600480360381019061017291906119e8565b61103c565b60405161018a9796959493929190611a7d565b60405180910390f35b600160205281600052604060002081815481106101af57600080fd5b9060005260206000209060030201600091509150508060000154908060010154908060020154905083565b60008080549050905060006040518060e00160405280838152602001878152602001868152602001858152602001848152602001600115158152602001600073ffffffffffffffffffffffffffffffffffffffff16815250908060018154018082558091505060019003906000526020600020906006020160009091909190915060008201518160000155602082015181600101908161027a9190611d06565b5060408201518160020190816102909190611d06565b50606082015181600301556080820151816004015560a08201518160050160006101000a81548160ff02191690831515021790555060c08201518160050160016101000a81548173ffffffffffffffffffffffffffffffffffffffff021916908373ffffffffffffffffffffffffffffffffffffffff1602179055505050807f55750e65431cb3ebf1571c47da52699b56975a35fe85c9bc8ad7fbdeb313f9318660405161033e9190611dd8565b60405180910390a25050505050565b60608060608060606000600160008873ffffffffffffffffffffffffffffffffffffffff1673ffffffffffffffffffffffffffffffffffffffff1681526020019081526020016000208054905090508067ffffffffffffffff8111156103b6576103b5611314565b5b6040519080825280602002602001820160405280156103e45781602001602082028036833780820191505090505b5095508067ffffffffffffffff81111561040157610400611314565b5b60405190808252806020026020018201604052801561042f5781602001602082028036833780820191505090505b5094508067ffffffffffffffff81111561044c5761044b611314565b5b60405190808252806020026020018201604052801561047f57816020015b606081526020019060019003908161046a5790505b5093508067ffffffffffffffff81111561049c5761049b611314565b5b6040519080825280602002602001820160405280156104cf57816020015b60608152602001906001900390816104ba5790505b5092508067ffffffffffffffff8111156104ec576104eb611314565b5b60405190808252806020026020018201604052801561051a5781602001602082028036833780820191505090505b50915060005b8181101561085c576000600160008a73ffffffffffffffffffffffffffffffffffffffff1673ffffffffffffffffffffffffffffffffffffffff168152602001908152602001600020828154811061057b5761057a611dfa565b5b9060005260206000209060030201604051806060016040529081600082015481526020016001820154815260200160028201548152505090506000808260000151815481106105cd576105cc611dfa565b5b90600052602060002090600602016040518060e00160405290816000820154815260200160018201805461060090611b29565b80601f016020809104026020016040519081016040528092919081815260200182805461062c90611b29565b80156106795780601f1061064e57610100808354040283529160200191610679565b820191906000526020600020905b81548152906001019060200180831161065c57829003601f168201915b5050505050815260200160028201805461069290611b29565b80601f01602080910402602001604051908101604052809291908181526020018280546106be90611b29565b801561070b5780601f106106e05761010080835404028352916020019161070b565b820191906000526020600020905b8154815290600101906020018083116106ee57829003601f168201915b5050505050815260200160038201548152602001600482015481526020016005820160009054906101000a900460ff161515151581526020016005820160019054906101000a900473ffffffffffffffffffffffffffffffffffffffff1673ffffffffffffffffffffffffffffffffffffffff1673ffffffffffffffffffffffffffffffffffffffff1681525050905081600001518984815181106107b3576107b2611dfa565b5b60200260200101818152505081602001518884815181106107d7576107d6611dfa565b5b60200260200101818152505080602001518784815181106107fb576107fa611dfa565b5b6020026020010181905250806040015186848151811061081e5761081d611dfa565b5b6020026020010181905250806060015185848151811061084157610840611dfa565b5b60200260200101818152505050508080600101915050610520565b505091939590929450565b60008054905082106108ae576040517f08c379a00000000000000000000000000000000000000000000000000000000081526004016108a590611e75565b60405180910390fd5b60008083815481106108c3576108c2611dfa565b5b906000526020600020906006020190508060050160009054906101000a900460ff16610924576040517f08c379a000000000000000000000000000000000000000000000000000000000815260040161091b90611ee1565b60405180910390fd5b60008282600301546109369190611f30565b90508034101561097b576040517f08c379a000000000000000000000000000000000000000000000000000000000815260040161097290611fbe565b60405180910390fd5b82826004018190555060008260050160006101000a81548160ff021916908315150217905550338260050160016101000a81548173ffffffffffffffffffffffffffffffffffffffff021916908373ffffffffffffffffffffffffffffffffffffffff160217905550600160003373ffffffffffffffffffffffffffffffffffffffff1673ffffffffffffffffffffffffffffffffffffffff168152602001908152602001600020604051806060016040528086815260200185815260200142815250908060018154018082558091505060019003906000526020600020906003020160009091909190915060008201518160000155602082015181600101556040820151816002015550503373ffffffffffffffffffffffffffffffffffffffff16847fe880d822f4bdb63368fee99cd4a95706e7c7fdf51c0d2edd68bb8f4d0ea0fe7285604051610ace9190611fde565b60405180910390a350505050565b60608060608060608060606000808054905090508067ffffffffffffffff811115610b0a57610b09611314565b5b604051908082528060200260200182016040528015610b385781602001602082028036833780820191505090505b5097508067ffffffffffffffff811115610b5557610b54611314565b5b604051908082528060200260200182016040528015610b8857816020015b6060815260200190600190039081610b735790505b5096508067ffffffffffffffff811115610ba557610ba4611314565b5b604051908082528060200260200182016040528015610bd857816020015b6060815260200190600190039081610bc35790505b5095508067ffffffffffffffff811115610bf557610bf4611314565b5b604051908082528060200260200182016040528015610c235781602001602082028036833780820191505090505b5094508067ffffffffffffffff811115610c4057610c3f611314565b5b604051908082528060200260200182016040528015610c6e5781602001602082028036833780820191505090505b5093508067ffffffffffffffff811115610c8b57610c8a611314565b5b604051908082528060200260200182016040528015610cb95781602001602082028036833780820191505090505b5092508067ffffffffffffffff811115610cd657610cd5611314565b5b604051908082528060200260200182016040528015610d045781602001602082028036833780820191505090505b50915060005b81811015611031576000808281548110610d2757610d26611dfa565b5b90600052602060002090600602016040518060e001604052908160008201548152602001600182018054610d5a90611b29565b80601f0160208091040260200160405190810160405280929190818152602001828054610d8690611b29565b8015610dd35780601f10610da857610100808354040283529160200191610dd3565b820191906000526020600020905b815481529060010190602001808311610db657829003601f168201915b50505050508152602001600282018054610dec90611b29565b80601f0160208091040260200160405190810160405280929190818152602001828054610e1890611b29565b8015610e655780601f10610e3a57610100808354040283529160200191610e65565b820191906000526020600020905b815481529060010190602001808311610e4857829003601f168201915b5050505050815260200160038201548152602001600482015481526020016005820160009054906101000a900460ff161515151581526020016005820160019054906101000a900473ffffffffffffffffffffffffffffffffffffffff1673ffffffffffffffffffffffffffffffffffffffff1673ffffffffffffffffffffffffffffffffffffffff1681525050905080600001518a8381518110610f0d57610f0c611dfa565b5b6020026020010181815250508060200151898381518110610f3157610f30611dfa565b5b60200260200101819052508060400151888381518110610f5457610f53611dfa565b5b60200260200101819052508060600151878381518110610f7757610f76611dfa565b5b6020026020010181815250508060800151868381518110610f9b57610f9a611dfa565b5b6020026020010181815250508060a00151858381518110610fbf57610fbe611dfa565b5b6020026020010190151590811515815250508060c00151848381518110610fe957610fe8611dfa565b5b602002602001019073ffffffffffffffffffffffffffffffffffffffff16908173ffffffffffffffffffffffffffffffffffffffff1681525050508080600101915050610d0a565b505090919293949596565b6000818154811061104c57600080fd5b906000526020600020906006020160009150905080600001549080600101805461107590611b29565b80601f01602080910402602001604051908101604052809291908181526020018280546110a190611b29565b80156110ee5780601f106110c3576101008083540402835291602001916110ee565b820191906000526020600020905b8154815290600101906020018083116110d157829003601f168201915b50505050509080600201805461110390611b29565b80601f016020809104026020016040519081016040528092919081815260200182805461112f90611b29565b801561117c5780601f106111515761010080835404028352916020019161117c565b820191906000526020600020905b81548152906001019060200180831161115f57829003601f168201915b5050505050908060030154908060040154908060050160009054906101000a900460ff16908060050160019054906101000a900473ffffffffffffffffffffffffffffffffffffffff16905087565b6000604051905090565b600080fd5b600080fd5b600073ffffffffffffffffffffffffffffffffffffffff82169050919050565b600061120a826111df565b9050919050565b61121a816111ff565b811461122557600080fd5b50565b60008135905061123781611211565b92915050565b6000819050919050565b6112508161123d565b811461125b57600080fd5b50565b60008135905061126d81611247565b92915050565b6000806040838503121561128a576112896111d5565b5b600061129885828601611228565b92505060206112a98582860161125e565b9150509250929050565b6112bc8161123d565b82525050565b60006060820190506112d760008301866112b3565b6112e460208301856112b3565b6112f160408301846112b3565b949350505050565b600080fd5b600080fd5b6000601f19601f8301169050919050565b7f4e487b7100000000000000000000000000000000000000000000000000000000600052604160045260246000fd5b61134c82611303565b810181811067ffffffffffffffff8211171561136b5761136a611314565b5b80604052505050565b600061137e6111cb565b905061138a8282611343565b919050565b600067ffffffffffffffff8211156113aa576113a9611314565b5b6113b382611303565b9050602081019050919050565b82818337600083830152505050565b60006113e26113dd8461138f565b611374565b9050828152602081018484840111156113fe576113fd6112fe565b5b6114098482856113c0565b509392505050565b600082601f830112611426576114256112f9565b5b81356114368482602086016113cf565b91505092915050565b60008060008060808587031215611459576114586111d5565b5b600085013567ffffffffffffffff811115611477576114766111da565b5b61148387828801611411565b945050602085013567ffffffffffffffff8111156114a4576114a36111da565b5b6114b087828801611411565b93505060406114c18782880161125e565b92505060606114d28782880161125e565b91505092959194509250565b6000602082840312156114f4576114f36111d5565b5b600061150284828501611228565b91505092915050565b600081519050919050565b600082825260208201905092915050565b6000819050602082019050919050565b6115408161123d565b82525050565b60006115528383611537565b60208301905092915050565b6000602082019050919050565b60006115768261150b565b6115808185611516565b935061158b83611527565b8060005b838110156115bc5781516115a38882611546565b97506115ae8361155e565b92505060018101905061158f565b5085935050505092915050565b600081519050919050565b600082825260208201905092915050565b6000819050602082019050919050565b600081519050919050565b600082825260208201905092915050565b60005b8381101561162f578082015181840152602081019050611614565b60008484015250505050565b6000611646826115f5565b6116508185611600565b9350611660818560208601611611565b61166981611303565b840191505092915050565b6000611680838361163b565b905092915050565b6000602082019050919050565b60006116a0826115c9565b6116aa81856115d4565b9350836020820285016116bc856115e5565b8060005b858110156116f857848403895281516116d98582611674565b94506116e483611688565b925060208a019950506001810190506116c0565b50829750879550505050505092915050565b600060a0820190508181036000830152611724818861156b565b90508181036020830152611738818761156b565b9050818103604083015261174c8186611695565b905081810360608301526117608185611695565b90508181036080830152611774818461156b565b90509695505050505050565b60008060408385031215611797576117966111d5565b5b60006117a58582860161125e565b92505060206117b68582860161125e565b9150509250929050565b600081519050919050565b600082825260208201905092915050565b6000819050602082019050919050565b60008115159050919050565b611801816117ec565b82525050565b600061181383836117f8565b60208301905092915050565b6000602082019050919050565b6000611837826117c0565b61184181856117cb565b935061184c836117dc565b8060005b8381101561187d5781516118648882611807565b975061186f8361181f565b925050600181019050611850565b5085935050505092915050565b600081519050919050565b600082825260208201905092915050565b6000819050602082019050919050565b6118bf816111ff565b82525050565b60006118d183836118b6565b60208301905092915050565b6000602082019050919050565b60006118f58261188a565b6118ff8185611895565b935061190a836118a6565b8060005b8381101561193b57815161192288826118c5565b975061192d836118dd565b92505060018101905061190e565b5085935050505092915050565b600060e0820190508181036000830152611962818a61156b565b905081810360208301526119768189611695565b9050818103604083015261198a8188611695565b9050818103606083015261199e818761156b565b905081810360808301526119b2818661156b565b905081810360a08301526119c6818561182c565b905081810360c08301526119da81846118ea565b905098975050505050505050565b6000602082840312156119fe576119fd6111d5565b5b6000611a0c8482850161125e565b91505092915050565b600082825260208201905092915050565b6000611a31826115f5565b611a3b8185611a15565b9350611a4b818560208601611611565b611a5481611303565b840191505092915050565b611a68816117ec565b82525050565b611a77816111ff565b82525050565b600060e082019050611a92600083018a6112b3565b8181036020830152611aa48189611a26565b90508181036040830152611ab88188611a26565b9050611ac760608301876112b3565b611ad460808301866112b3565b611ae160a0830185611a5f565b611aee60c0830184611a6e565b98975050505050505050565b7f4e487b7100000000000000000000000000000000000000000000000000000000600052602260045260246000fd5b60006002820490506001821680611b4157607f821691505b602082108103611b5457611b53611afa565b5b50919050565b60008190508160005260206000209050919050565b60006020601f8301049050919050565b600082821b905092915050565b600060088302611bbc7fffffffffffffffffffffffffffffffffffffffffffffffffffffffffffffffff82611b7f565b611bc68683611b7f565b95508019841693508086168417925050509392505050565b6000819050919050565b6000611c03611bfe611bf98461123d565b611bde565b61123d565b9050919050565b6000819050919050565b611c1d83611be8565b611c31611c2982611c0a565b848454611b8c565b825550505050565b600090565b611c46611c39565b611c51818484611c14565b505050565b5b81811015611c7557611c6a600082611c3e565b600181019050611c57565b5050565b601f821115611cba57611c8b81611b5a565b611c9484611b6f565b81016020851015611ca3578190505b611cb7611caf85611b6f565b830182611c56565b50505b505050565b600082821c905092915050565b6000611cdd60001984600802611cbf565b1980831691505092915050565b6000611cf68383611ccc565b9150826002028217905092915050565b611d0f826115f5565b67ffffffffffffffff811115611d2857611d27611314565b5b611d328254611b29565b611d3d828285611c79565b600060209050601f831160018114611d705760008415611d5e578287015190505b611d688582611cea565b865550611dd0565b601f198416611d7e86611b5a565b60005b82811015611da657848901518255600182019150602085019450602081019050611d81565b86831015611dc35784890151611dbf601f891682611ccc565b8355505b6001600288020188555050505b505050505050565b60006020820190508181036000830152611df28184611a26565b905092915050565b7f4e487b7100000000000000000000000000000000000000000000000000000000600052603260045260246000fd5b7f494420696e76616c69646f000000000000000000000000000000000000000000600082015250565b6000611e5f600b83611a15565b9150611e6a82611e29565b602082019050919050565b60006020820190508181036000830152611e8e81611e52565b9050919050565b7f436172726f206e616f20646973706f6e6976656c000000000000000000000000600082015250565b6000611ecb601483611a15565b9150611ed682611e95565b602082019050919050565b60006020820190508181036000830152611efa81611ebe565b9050919050565b7f4e487b7100000000000000000000000000000000000000000000000000000000600052601160045260246000fd5b6000611f3b8261123d565b9150611f468361123d565b9250828202611f548161123d565b91508282048414831517611f6b57611f6a611f01565b5b5092915050565b7f56616c6f7220696e737566696369656e74650000000000000000000000000000600082015250565b6000611fa8601283611a15565b9150611fb382611f72565b602082019050919050565b60006020820190508181036000830152611fd781611f9b565b9050919050565b6000602082019050611ff360008301846112b3565b9291505056fea26469706673582212203f4bf2d8b2138654681fb2a0ded2a04cd116417d7e6767728b323c4bd2f247bf64736f6c634300081c0033",
  "linkReferences": {},
  "deployedLinkReferences": {}
}